:040000008A150D2C24
:10000800FF00030E83018316E7000A08E6008A0151
:1000180070088312A3007108A2008B1C25280618FB
:10002800242800303A06031D1B2800303906031D1A
:1000380022280130B9000030BA002428B901BA01D9
:100048008B102308F0002208F100831666088A0046
:0A005800670E8300FF0E7F0E090003
:0E006200F201F101F001F801F3010030080095
:100070007B15FB1F42280130F300F201F101F00172
:08008000FA0DF20CFF3008003C
:08008800FA1FF213003008001A
:10009000FB14FB1F5228FF30F300F200F100F000C8
:0800A000FA0DF20CFF3008001C
:0600A8000000000008004A
:1000AE000F3083120313FC004730FD00FD0B5D285B
:0A00BE00FC0B5D28000000000800A4
:0E00C800213083120313FD00FD0B6828080091
:1000D6007C18A128FC1872287C19C0286B28A1015D
:1000E6007208031D92287108F2007008F100780862
:1000F600F000F801A1157208031D92287108F2009C
:100106007008F100F001A11121167208031D922852
:100116007108F200F101A11572080319B42821082B
:10012600F302031D031CB8280310F21BA128F80DC7
:10013600F00DF10DF20DF30B9828B8287B1B701CFF
:10014600BC28F81FBC28F00A0319F10A0319F20AA1
:10015600031DBC28F20CF10CF00CF30A0319C0289D
:10016600BC280130FC003120C3280230FC003820B6
:10017600C3280430FC004420C3280830FC00482073
:04018600000008006D
:10018A00A1017208031DDA287108F2007008F10053
:10019A00F001A1157208031DDA287108F200F101B5
:1001AA00A111211672080319E8282108F302031D78
:1001BA00031CEC280310F21BF028F00DF10DF20DD0
:1001CA00F30BE028EC280130FC003120F328023040
:0E01DA00FC003820F3280430FC00442008000C
:1001E80083120313F801F9011030FC00710DF80DAA
:1001F800F90D7408F8027508031C750FF902031845
:100208000C297408F80775080318750FF907031007
:0A021800F00DF10DFC0BFA280800B0
:0E0222008316031369088A006808820008002A
:1002300083120317AA1B1F29031308132129031371
:10024000081703172A1B27290313881329290313C7
:1002500088170317AA1A2E2986102F2986142A1AFE
:1002600033290611342906158316031365183B2913
:10027000831206163D298312061286155420861114
:100280000317AA194629031308134829031308174B
:1002900003172A194E2903138813502903138817AB
:1002A0000317AA1855298610562986142A185A2980
:1002B00006115B290615831603136518622983123C
:1002C0000616642983120612861554208611831699
:0C02D000651C6C2957206D296420080073
:1002DC0083120313FB017308031D77080319C52947
:1002EC0072087606FA007708F3077E30031C822921
:1002FC00F3020318C8298529F302031CCB297208C1
:10030C00F8007108FC007008FD00F817F6170310D0
:10031C00F201F101F0011830A1007D1C9F29740835
:10032C00F00775080318750FF10776080318760F98
:10033C00F207F20CF10CF00CF80CFC0CFD0C031099
:10034C00A10B9329F21BAF29F80DF00DF10DF20D55
:10035C00F3037B1B701CC129F81FC129F00A031978
:10036C00F10A0319F20A031DC129F20CF10CF00C6D
:10037C00F30A0319C829FA1FF2130030CD290130F2
:10038C003120CD2902304820CD29043038200000FE
:02039C00080057
:10039E0083120313F101F20103172B087202031DDE
:1003AE00DA292A0871020318EF29F301F40100304B
:1003BE007402031DE429A73073020318EB29000011
:1003CE00F30A0319F40ADE29F10A0319F20AD329F2
:0203DE00080015
:1003E00083120313F101F20103172B087202031D9C
:1003F000FB292A0871020318032A00000000F10AF1
:080400000319F20AF4290800B7
:100408008312031372087606A100F801F901730834
:100418007702031C272A7708FD007308F7007D0878
:10042800F3007608FD007208F6007D08F2007508F2
:10043800FD007108F5007D08F1007408FD007008E2
:10044800F4007D08F00077080319A02A7208FA0062
:10045800F217F61777087302F70003195A2A0830BB
:100468007702031C502AF7007408F9007508F40095
:100478007608F500F60108307702031C502AF700C9
:100488007408F9007508F400F50108307702031CB8
:10049800502A7A08F200A02A770803195A2A03106A
:1004A800F60CF50CF40CF90CF70B532AA11F672A6C
:1004B800F909F409F509F609F90A0319F40A0319FF
:1004C800F50A0319F60A7908F80774080318740F6F
:1004D800F00775080318750FF10776080318760FEB
:1004E800F207A11B802A031C902AF20CF10CF00CD5
:1004F800F80CF30F902A9C2A0318942AF809F0099B
:10050800F109F209F80A0319F00A0319F10A0319A3
:10051800F20A8030FA06982A0130FC006B20A22AE1
:100528000230FC006B20A22A0430FC00C520A22A5D
:100538000830FC004820A22A0030FC000000080017
:100548007B14FB1FAF2AF201FA1FFF30F200F10003
:0A055800F000FA0DF20CFF3008006D
:10056200831203172408F0002508F100F00DF10DA5
:100572007010F00DF10D70102208F0072308031817
:10058200013EF107700883160313E8007108E900C1
:1005920011218A110A1283120317A600831603136C
:1005A200E80A0319E90A11218A110A1283120317B0
:1005B200A70083160313E80A0319E90A11218A1115
:1005C2000A1283120317A80083160313E80A0319F9
:1005D200E90A11218A110A1283120317A9002408B9
:1005E20025040319442B1E08F0001F08F1002008FF
:1005F200F2002108F3002608F4002708F500280875
:10060200F6002908F7006E2101300317A402031C2B
:10061200A5032408F4002508F500F40DF50D741067
:10062200F40DF50D74102208F40723080318013E97
:10063200F507740883160313E8007508E900112111
:100642008A110A12F400E80A0319E90A11218A112F
:100652000A12F500E80A0319E90A11218A110A129D
:10066200F600E80A0319E90A11218A110A12F700B1
:10067200042270080317A6007108A7007208A800D8
:100682007308A900F02A2608F0002708F1002808BC
:08069200F2002908F300080042
:06069A00FB15FF30080013
:1006A0001E3083120313F4000330740784007E307D
:1006B0000002F000F101031CF1030317220884007B
:1006C000700880007108840A800003307407840079
:1006D0007E3080001E08F0001F08F1002008F200A4
:0606E0002108F3000800F0
:1006E60083120313FA017308031D7A147708031D96
:1006F600FA147A080319BF2B033A03198A2B7A18BE
:10070600872BF61FBD2BBB2BF21FBB2BBD2B7208F5
:100716008039FA00F21376088039F6137A0603193F
:10072600982B7A080319BB2BBD2B77087302031984
:100736009F2B031CB32BB72B760872020319A62B2B
:10074600031CB32BB72B750871020319AD2B031CC1
:10075600B32BB72B740870020319BF2B0318B72BE2
:10076600FA080319BD2BBB2BFA080319BB2BBD2BAB
:1007760003140800031008000314031508000800FA
:1007860083120313FB01FA01F901F801A001730DAD
:10079600F80D7408F8027508031C750FF90276083F
:1007A600031C760FFA027708031C770FFB02000181
:1007B600031C0130A002F30D0730FC00730DF80D89
:1007C600F90DFA0DFB0DA00D7408731CFC2BF80235
:1007D6007508031C750FF9027608031C760FFA02DA
:1007E6007708031C770FFB020001031C0130A002EF
:1007F6000D2CF80775080318750FF9077608031806
:10080600760FFA0777080318770FFB07000103181E
:100816000130A007F30DFC0BE12B720DF80DF90D5D
:10082600FA0DFB0DA00D7408731C2B2CF80275082D
:10083600031C750FF9027608031C760FFA02770877
:10084600031C770FFB020001031C0130A0023C2CA5
:10085600F80775080318750FF90776080318760F59
:10086600FA0777080318770FFB0700010318013012
:10087600A007F20D0730FC00720DF80DF90DFA0D08
:10088600FB0DA00D7408721C5A2CF8027508031C87
:10089600750FF9027608031C760FFA027708031C17
:1008A600770FFB020001031C0130A0026B2CF80736
:1008B60075080318750FF90776080318760FFA07F7
:1008C60077080318770FFB07000103180130A0070C
:1008D600F20DFC0B3F2C710DF80DF90DFA0DFB0D09
:1008E600A00D7408721C892CF8027508031C750F7C
:1008F600F9027608031C760FFA027708031C770FB5
:10090600FB020001031C0130A0029A2CF8077508AF
:100916000318750FF90776080318760FFA07770894
:100926000318770FFB07000103180130A007F10D2C
:100936000730FC00710DF80DF90DFA0DFB0DA00D39
:100946007408711CB82CF8027508031C750FF9029F
:100956007608031C760FFA027708031C770FFB0252
:100966000001031C0130A002C92CF8077508031802
:10097600750FF90776080318760FFA077708031834
:10098600770FFB07000103180130A007F10DFC0BE0
:100996009D2C700DF80DF90DFA0DFB0DA00D7408C8
:1009A600711CE72CF8027508031C750FF90276080E
:1009B600031C760FFA027708031C770FFB0200016F
:1009C600031C0130A002F82CF80775080318750FF0
:1009D600F90776080318760FFA0777080318770FD2
:1009E600FB07000103180130A007F00D0730FC00DB
:1009F600700DF80DF90DFA0DFB0DA00D7408701CA5
:100A0600162DF8027508031C750FF9027608031CEB
:100A1600760FFA027708031C770FFB020001031C0E
:100A26000130A002272DF80775080318750FF9077E
:100A360076080318760FFA0777080318770FFB076F
:100A4600000103180130A007F00DFC0BFB2C7018F9
:100A56003A2D7408F80775080318750FF907760814
:100A66000318760FFA0777080318770FFB070800B5
:100A7600831203132230FC00F801F901FA01FB018D
:100A8600FC030319712D0310FB0CFA0CF90CF80C7E
:100A9600F30CF20CF10CF00C031C432DFC030319B0
:100AA600632D7408F80775080318750FF90776089B
:100AB6000318760FFA0777080318770FFB07472DF9
:100AC6007408F80775080318750FF90776080318F0
:0E0AD600760FFA0777080318770FFB07080062
:100AE400831603136510831203171E08AA00182126
:060AF400831665140800E2
:100AFA00831203138F018E011014071A892D643093
:100B0A000E020318892D822D0E08633C03188F2DBF
:100B1A00F001A02D8F018E01071E982D64300E0260
:100B2A000318982D912D0E08633C03189E2DF00191
:080B3A00A02D0130F0000800BD
:100B42008316031307128312071219300317AA0020
:100B52000030AB00CF21831203130716193003179D
:100B6200AA000030AB00F021831603130716080019
:0C0B7200831203138030F60604220800F2
:100B7E00831203137008F8007108F000F101F201FE
:100B8E00F301FB01FC019630F300FA01F01FD52DA5
:100B9E00F809F009F80A0319F00AFA177008F100BB
:0C0BAE007808F000F801F201C5200800F2
:100BBA00831203171E0884008001F2018030720636
:100BCA00F0008030083A70020318212E03138F01B7
:100BDA008E01071AF82D0E08643C0318F72D013010
:100BEA00F000222EEE2D8F018E01071E042E0E0814
:100BFA00643C0318032E0130F000222EFA2D0E0851
:100C0A00323C03181F2E7208073CF0007008F100EE
:100C1A000130F00071080319162EF00D7010FF3E16
:100C2A00102E03171E0884000008F0041E08840012
:0C0C3A0070088000F20AE32DF0010800B1
:100C460083120317A101053021020318312E210852
:100C56002007840020308000A10A262E21082007C4
:100C660084008001A10321082007A2000A30F400B5
:100C7600F5011E08F0001F08F100F4207808F000C6
:100C86007908F1003030F007031722088400700855
:100C960080000A30F400F5011E08F0001F08F1007C
:100CA600F420700803179E0071089F00003071063B
:100CB600031D5F2E00307006031D622E642EA103F5
:040CC600362E0800BE
:100CCA008312031790019101831603136E08F20031
:100CDA006E08F300720884000008203A031D7C2E77
:100CEA008312031710081104031D7C2E8B2E831206
:100CFA000317013090000030910072088400000848
:100D0A00F0007308840070088000F30A7208F1008A
:100D1A00F20A710884000008003A031D6F2E831638
:080D2A0003136E08F00008003D
:100D320083120313FB0173080319D62E7208FA00FB
:100D4200F2178E30F302F31FD92EF309F30A08309B
:100D52007302031CBC2EF300F10D7208F100F201C4
:100D620008307302031CBC2EF300F10DF10173086D
:100D7200031D0310C42E73080319C42E0310F20CB2
:100D8200F10CF30BBF2E7B1B711CCE2E031CCE2E3F
:100D9200F10A0319F20AF21BE52EFA1FE82EF209F4
:100DA200F109F10A0319F20AE82EF201F101E82E23
:100DB2007B14FB1FEB2EF201FA1FEB2EFF30F20029
:100DC200F100FA0DF20CEB2E0130FC00ED2E00309A
:100DD200FC00ED2EFF30FC00FC080319F12EA422CA
:0A0DE2007108F0007208F10008002B
:0A0DEC008312031312118710080090
:080DF60083120313121508001B
:100DFE0010308312031390008F018E01A1257D25E3
:100E0E0070080319572FE43003179E00DD25831257
:100E1E0003137008031D382FE23003179E00DD25E3
:100E2E00831203137008031D382FE33003179E003F
:100E3E00DD25831203137008031D382FE1300317CD
:100E4E009E00DD25831203137008031D382FDE303C
:100E5E0003179E00DD25831203137008031D382F20
:100E6E00392F572F831662086407F000F10103181B
:100E7E00F10A6308F0070318F10A6108F007031876
:100E8E00F10AFF307005F2007108F3000030F3052F
:100E9E0000307306031D552F72085E06031D572F73
:100EAE00831290011010E8300317AA000330AB0034
:040EBE00CF21080038
:100EC200C530831203139F0583166E08F000F00DE0
:100ED2007010F00D7010F00D70107008EE007008B8
:100EE20083129F0402300317AA000030AB00CF2107
:100EF200831203131F151F1D7F2F7C2F1E08F10065
:0E0F0200F00183161E08F0070318F10A08001C
:100F1000831203137008F8007108F0007208F100E2
:100F20007308F200F301FB01FC019E30F300FA01AB
:100F3000F21FA62FF809F009F109F209F80A0319BE
:100F4000F00A0319F10A0319F20AFA170230FC0039
:040F50006B2008000A
:100F5400831603136E08F000F00CF013F00CF0137A
:100F6400700883129B00CF301D05F30003308316F5
:100F74006E05F2007208F000F00D7010F00D7010A4
:100F8400F00D7010F00D70107008730483129D0042
:020F9400080053
:100F960083160313EF016F086E0784000008031918
:100FA600DE2F6F086E0784000008831203179E0069
:080FB6007225EF0ACE2F08009E
:100FBE007C308316031392000130831292000C30A2
:080FCE009D009B0112150800B3
:100FD6008430831603139F0083129F0141309F00C4
:020FE600080001
:10100000831203171008F4001108F5001208F60007
:101010001308F700F001F101F201F3018A117323C3
:101020008A150130031C0030F000700803191D28D8
:10103000F001F101F201F3019528031710089E0059
:1010400011089F001208A0001308A100EE30A200B2
:101050008A1150238A150030F4000030F50000306A
:10106000F6008030F7008A116E218A150030F400F6
:101070000030F5000030F6007F30F7008A11B92506
:101080008A15700803179000710891007208920089
:1010900073089300013083160313EE02031CEF0361
:1010A0007008831203179E0071089F007208A00049
:1010B0007308A100E130A2000C30A3000830A400A6
:1010C0000030A5008A11B1228A15700894007108B9
:1010D0009500720896007308970014089000150890
:1010E00091001608920017089300831603136E08E8
:1010F000F0006F08F1008A11BF258A151830F4003E
:101100007230F5003130F6007E30F7008A116E2122
:101110008A1503171408F4001508F5001608F600E0
:0C1120001708F7008A1104228A15080045
:10112C00831203137408003A031DB1287508003AA2
:10113C00031DB1287608003A031DB1287708003A40
:10114C00031DB128FF30F000FF30F1007F30F200BA
:10115C00FF30F30054298312031377080319402935
:10116C00730803194529720876068039FA00F217BC
:10117C00F617A1017208F8007108FC007008FD0058
:10118C007408FD027508031C750FFC027608031C1D
:10119C00760FF802F801FC01FD01031CDC2803109A
:1011AC00F20CF10CF00CF80C0130A1007708F302F2
:1011BC00031CE6287E302107F30703184A29EB2885
:1011CC007E302107F307031C4F291830FA07FD0D59
:1011DC00FC0DF80DF00DF10DF20DA10D7408F002DF
:1011EC007508031C750FF1027608031C760FF202CA
:1011FC00760DA104211C04297D140F297408F00715
:10120C0075080318750FF10776080318760AF207AC
:10121C007D10FA031F307A05031DED287B1B7D1C06
:10122C0036290310F00DF10DF20DA10D7408F0022A
:10123C007508031C750FF1027608031C760FF20279
:10124C00760D21040139FD070318FC0A0319F80A6D
:10125C00031D3629F80CFC0CFD0CF30A03194A2962
:10126C00FA1FF8137808F2007C08F1007D08F000F2
:10127C000030532901308A114D238A15532902302D
:10128C008A1131208A15532904308A1148208A1575
:0E129C00532908308A1138208A1500000800F6
:1012AA0083120313FB01FC01F80173080319CD290A
:1012BA007208FA00F2179E30F302F31FBD29F309F0
:1012CA00F30A08307302031C9229F300F80D700820
:1012DA00F8007108F0007208F100F2010830730298
:1012EA00031C9229F300F80D7008F8007108F00049
:1012FA00F10108307302031C9229F300F80D7008FB
:10130A00F800F00108307302031C9229F300F80D6B
:10131A00F8017308031D03109C29730803199C29FB
:10132A000310F20CF10CF00CF80CF30B95297B1B53
:10133A00781CAA29031CAA29F80A0319F00A031916
:10134A00F10A0319F20AF21BCA29FA1FCD29F20976
:10135A00F109F009F809F80A0319F00A0319F10A60
:10136A000319F20ACD29F201F101F001F801CD29A0
:10137A007B14FB1FD029F201FA1FD029F200F100D9
:10138A00F000F800FA0DF20CD0290130FC00D22945
:10139A000030FC00D229FF30FC00FC080319D829D0
:1013AA008A11A4228A157208F3007108F2007008E3
:0813BA00F1007808F0000800C2
:1013C20083120317930194011008950011089600E7
:1013D20080301106F00080307002031DF2290030C7
:1013E20010020318002A0130930000309400100804
:1013F200003C95001108031C013E96019602150857
:101402009E0016089F001208A0008A1123268A1542
:10141200063083160313EE000030EF006F08003C25
:10142200031D152A6E08003C0318382A6E08831221
:1014320003171207F2000130831603136E02F00045
:101442000030031C013E6F02F10070088312031783
:10145200120784000008F0007208840070088000FF
:10146200013083160313EE02031CEF030F2A8312CB
:101472000317120884002030800013081404031993
:10148200622A83160313EE01EF016E08831203171B
:10149200120784000008203A031D552A83160313FD
:1014A200EE0A0319EF0A462A831603130130EE02ED
:1014B200031CEF036E0883120317120784002D30FA
:0414C200800008009E
:1014C600831203171008F0001108F1001208F20049
:1014D6001308F3001408F4001508F500F601F701E7
:1014E6008A113B258A15E830F4000330F5000030F8
:1014F600F6000030F7008A11C3238A157008031717
:101506009A0071089B0072089C0073089D001008E1
:10151600F4001108F5001208F6001308F700203051
:10152600F000A130F1000730F2000030F3008A111C
:10153600C3238A1570088316EE007108EF00831224
:10154600031796019701980199011D081902031DB9
:10155600B62A1C081802031DB62A1B081702031D0B
:10156600B62A1A0816020318F02A031387168316DA
:101576006E0883120317AA00831603136F088312DB
:101586000317AB008A11F0218A15031387128316FD
:101596006E0883120317AA00831603136F088312BB
:1015A6000317AB008A11F0218A151608F0001708F8
:1015B600F1001808F2001908F300F00A0319F10AFD
:1015C6000319F20A0319F30A7008960071089700C6
:0C15D6007208980073089900A82A080009
:1015E200032B8030831203179000162BC03090001B
:1015F200162B94309000162BD4309000162B80308E
:101602009000162B831203171008013A0319F22ACD
:101612001008023A0319F72A1008033A0319FA2AA2
:101622001008043A0319FD2A002B1103F0001008D8
:10163200F007700890007008AA008A1118218A1514
:1016420083166510EE016E088312031712078400D9
:10165200000803193A2B831603136E08831203172B
:101662001207840000089E008A1172258A15EE0A6C
:0A167200242B8316031365140800EF
:10167C0083120313FB01FC01FA01730803196B2B92
:10168C00FA13F2178630F302F31B4F2B03194F2B6F
:10169C006D2BF309F30A08307302031C5C2BF30067
:1016AC00F20DF2017308031D0310632B7308031969
:1016BC00632B0310F20CF30B5F2B7B1B721C6B2B3D
:1016CC00031C6B2BF20A0319722BF101752B7B1483
:1016DC00FB1F782BF101782B0130FC007A2B0030AA
:1016EC00FC007A2BFF30FC00FC080319802B8A11BC
:0A16FC00A4228A157208F00008000D
:101706008316031386110612061186108813081312
:1017160083128611061208138813861006118A1181
:1017260057208A158A1157208A158A1157208A153B
:101736008614061586158A1154208A1586118A1173
:1017460057208A1586158A1154208A1586118A1102
:1017560057208A1586158A1154208A1586118A11F2
:1017660057208A15061186158A1154208A15861166
:101776008A1157208A1586158A1154208A158611D2
:101786008610081786158A1154208A1586118A1123
:1017960057208A150813061586158A1154208A15AE
:1017A6008611061186158A1154208A1586118A110A
:1017B60057208A1586158A1154208A158611061512
:1017C60086158A1154208A1586118A1157208A1582
:1017D600061186158A1154208A158611081788174E
:1017E6008614061586158A1154208A1586118A11C3
:0A17F60057208A15831665140800B9
:101800008A1111218A150A128000840AE80A031934
:0A181000E90AF003031D002C080094
:10181A0036258316031385010514851405158515C8
:10182A0005168516051785178601061486140615EA
:10183A008615061686160617861787018715071650
:10184A0088018814073089008A11EB278A158B17BB
:10185A000B1790010B168B10831601138312970135
:10186A009D01861688160711081008128712051599
:10187A0008118710871383230C3083120317AA00D9
:10188A008A1118218A1501300317AA008A11182112
:10189A008A158A11DF278A158A11F6268A15E030F9
:1018AA008316C400C5018030F000803045067002FE
:1018BA00031D612C44082B3C0318852C0130C402FB
:1018CA00031CC503CB01CC014C08073C031D6F2C3C
:1018DA004B086C3C031C842C45084C02031D772CD6
:1018EA0044084B0203187C2C831208157F2C8312A0
:1018FA00FB3088058316CB0A0319CC0A692C582CAD
:10190A00643083120317AA000030AB008A11CF217A
:0E191A008A158A110A1600208A150A12932CCB
:101A6C0024308400483083120313F000993083161D
:101A7C00E8000C30E9000024A03084001830F0009D
:101A8C001E308316E8000D30E90000246C30840011
:101A9C000230F000FE308316E8000730E900002425
:101AAC00B83084000830F000F4308316E8000730BA
:101ABC00E90000246E3084000230F000FC30831604
:101ACC00E8000730E9000024C03084001930F00031
:0E1ADC0005308316E8000D30E90000240800F4
:1020000028308312031790000A3091009201930147
:1020100064309400003095008A150A1263228A11F8
:102020000A166030900009309100920193016430EB
:102030009400003095008A150A1263228A110A164C
:10204000283090000A30910092019301643094008E
:10205000003095008A150A1263228A110A16F4309C
:10206000AA000130AB000A12CF210A1628308312D1
:10207000031790000A30910092019301643094009C
:10208000003095008A150A1263228A110A16603000
:102090009000093091009201930164309400003067
:1020A00095008A150A1263228A110A1628309000B8
:1020B0000A30910092019301643094000030950041
:1020C0008A150A1263228A110A1601309000023022
:1020D0009100AB3092008A150A12F1228A110A1679
:1020E000883083120317AA001330AB000A12CF21E5
:1020F0000A16013083120317AA000A1218210A16C1
:1021000001300317900003309100603092008A156F
:102110000A12F1228A110A16023083120317900064
:1021200003309100A03092008A150A12F1228A1120
:102130000A16883083120317AA001330AB000A1264
:10214000CF210A160930831203139F000130831632
:10215000EE000A1261270A1670088312EC0071085B
:10216000ED000A12BF250A167008F4007108F50088
:102170007208F6007308F7000030F000C030F1007C
:102180007F30F2008830F3008A150A1296208A11F7
:102190000A160030F4000030F5000030F6007F3001
:1021A000F7000A12B9250A16700803179000710883
:1021B000910072089200730893008A150A12002099
:1021C0008A110A166330F4001D30F5001B30F6004A
:1021D0007330F7000A126E210A160F30F400CF3068
:1021E000F5005B30F6007630F7000A1204220A167A
:1021F00070088316BC007108BD007208BE00730829
:10220000BF007008F4007108F5007208F60073084A
:10221000F7000030F0000030F1000030F2007F30B5
:10222000F3008A150A1296208A110A16700883167E
:10223000BC007108BD007208BE007308BF003330D7
:10224000F4009330F5000830F6008730F7000A12EA
:10225000B9250A1670088316BC007108BD00720803
:10226000BE007308BF000A1299260A167008EE0015
:102270007108EF0014300317AA000030AB000A12F7
:10228000CF210A16831603133C08F0003D08F10025
:102290003E08F2003F08F3000A1299260A16700859
:1022A0008316DF007108E000D130F0002230F10029
:1022B0001B30F2007E30F3003C08F4003D08F500CE
:1022C0003E08F6003F08F7000A126E210A16663033
:1022D000F400A630F5002530F6008730F7000A122A
:1022E00004220A1670088316B8007108B900720833
:1022F000BA007308BB000030F4000030F50048302D
:10230000F6008530F7000A126E210A16700883164F
:10231000B8007108B9007208BA007308BB006430D5
:1023200083120317AA000030AB000A12CF210A164D
:10233000FE30831203139F050A12FF260A1680300F
:1023400083120313F0008030831660067002031DB1
:10235000AB295F08283C0318EC2955085F02F00000
:102360005608031C013E6002F10070088312C6008B
:102370007108C7000A12BF250A160030F4000030A9
:10238000F5002030F6008430F7008A150A129620F6
:102390008A110A1670088316D0007108D1007208DD
:1023A000D2007308D3000030F4000030F5007F3015
:1023B000F6008630F7000A126E210A168A150A12F4
:1023C0003E238A110A1670088316EE000A12AA2705
:1023D0000A160A12FB260A16803083166006F000E1
:1023E00080307002031DF62928305F020318FD2992
:1023F0000A12F6260A16FE30870501308316CF0032
:10240000CD01CE01C001C101C201C301CA018312C5
:102410008F018E0183164F08013A031D1C2A831277
:1024200007150A300317AA000030AB000A12F0218A
:102430000A16031307112D2A83164F08023A031DAB
:102440002D2A831208140A300317AA000030AB00AB
:102450000A12F0210A160313081083120230031720
:10246000AA000030AB000A12CF210A16831603130C
:102470004F08013A031D7A2AC601C701C801C901E4
:102480008030F000803049067002031D512A480850
:10249000003C031D512A4708C33C031D512A46082E
:1024A000503C031C792A8312871D572A792A013050
:1024B0000317AA000030AB000A12F0210A16831697
:1024C00003134608F0004708F1004808F2004908E5
:1024D000F300F00A0319F10A0319F20A0319F30AC7
:1024E0007008C6007108C7007208C8007308C900E8
:1024F000402AB82A8316C601C701C801C901803025
:10250000F000803049067002031D902A4808003C04
:10251000031D902A4708C33C031D902A4608503CDF
:10252000031CB82A8312881C962AB82A0130031784
:10253000AA000030AB000A12F0210A16831603131A
:102540004608F0004708F1004808F2004908F30087
:10255000F00A0319F10A0319F20A0319F30A7008C1
:10256000C6007108C7007208C8007308C9007F2A36
:1025700083121014013083164A02031CD72A8030BC
:102580004906F00080307002031DD02A0030480256
:10259000031DD02AC3304702031DD02A5030460203
:1025A000031CD72AC001C101C201C301C22B803064
:1025B0004906F00080307002031DE82A003048020E
:1025C000031DE82AC3304702031DE82A50304602A3
:1025D000031CEC2ACA0A072ACA014F08013A031D44
:1025E0002F2BC601C701C801C9018030F00080301F
:1025F00049067002031D062B4808003C031D062BEC
:102600004708C33C031D062B4608503C031C2E2BD9
:10261000831287190C2B2E2B01300317AA000030D0
:10262000AB000A12F0210A16831603134608F000C5
:102630004708F1004808F2004908F300F00A0319BE
:10264000F10A0319F20A0319F30A7008C6007108A7
:10265000C7007208C8007308C900F52A6D2B8316DD
:10266000C601C701C801C9018030F00080304906A9
:102670007002031D452B4808003C031D452B4708ED
:10268000C33C031D452B4608503C031C6D2B831295
:1026900088184B2B6D2B01300317AA000030AB00BC
:1026A0000A12F0210A16831603134608F0004708A1
:1026B000F1004808F2004908F300F00A0319F10A92
:1026C0000319F20A0319F30A7008C6007108C7005B
:1026D0007208C8007308C900342B831210108316C7
:1026E000C301831210088316C20083120F088316D9
:1026F000C100C00183120E088316C0040030C1045B
:102700000030C200C3004008F0004108F100420858
:10271000F2004308F3000A1288270A160030F4007A
:102720002430F5007430F6009330F7008A150A1251
:1027300096208A110A1683163808F4003908F50025
:102740003A08F6003B08F7000A126E210A1600301C
:10275000F4000030F5000030F6008030F7008A15F4
:102760000A1296208A110A168A150A1255218A1110
:102770000A1670088316C0007108C1007208C200F2
:102780007308C3004008CD004108CE004F08013A4D
:10279000031DD52B4D0883123B02BD0083164E0846
:1027A000031C013E83123C02BE0083164F08023A0E
:1027B000031DE52B4D0883123F02C10083164E080E
:1027C000031C013E83124002C2008316CF0A03306D
:1027D0004F020318EC2B002A643083120317AA005F
:1027E0000030AB000A12CF210A1600308312031307
:1027F0003A06031DFD2B00303906031D6B2C0130FA
:102800000317AA000A1218210A163D0803179000A0
:1028100003133E0803179100D93092008A150A125B
:10282000E1218A110A16D93083160313EE000A1229
:1028300065260A16013083120317900001309100BB
:10284000243092008A150A12F1228A110A16D93010
:10285000EE000A12CB270A163630EE000A12CB27FA
:102860000A16831241080317900003134208031746
:102870009100D93092008A150A12E1218A110A16B4
:10288000D93083160313EE000A1265260A160230A9
:10289000831203179000013091002D3092008A15A9
:1028A0000A12F1228A110A16D930EE000A12CB2739
:1028B0000A164330EE000A12CB270A1600308312A4
:1028C0003A06031D652C00303906031D6A2C061CD0
:1028D0006A2C672CE02C01300317AA000A12182179
:1028E0000A1683165F0883120317900083160313DA
:1028F0006008831203179100D93092008A150A12DA
:10290000E1218A110A16D93083160313EE000A1248
:1029100065260A16013083120317900001309100DA
:10292000553092008A150A12F1228A110A16D930FE
:10293000EE000A12CB270A16DF30831203179E001F
:102940000A1272250A164330831203179E000A12D8
:1029500072250A1664088312031790009101D9307A
:1029600092008A150A12E1218A110A16D9308316BB
:102970000313EE000A1265260A16023083120317AB
:102980009000013091004E3092008A150A12F12217
:102990008A110A16D930EE000A12CB270A165E30C9
:1029A000EE000A12CB270A16003083123A06031DE6
:1029B000DB2C01303906031DE02C061CE02CDD2C3D
:1029C00080305D06F00080303E067002031DEA2C68
:1029D0003D085C02031CF92C80304206F000803078
:1029E0004D067002031DF62C4C084102031CF92C05
:1029F000081680303E06F000803049067002031D44
:102A0000032D48083D020318122D80304B06F000BC
:102A1000803042067002031D0F2D41084A02031840
:102A2000122D132D0812E8300317AA000330AB0053
:102A30000A12CF210A160030831603135806031D0D
:102A4000232D01305706031D542DD701D801013025
:102A5000D40080304506F00080307002031D322D16
:102A6000B73044020318542DC40A0319C50ACB0118
:102A7000CC014C08073C031D3F2D4B086C3C031C4C
:102A8000532D45084C02031D472D44084B020318E3
:102A90004C2D831208154E2D831208118316CB0A74
:102AA0000319CC0A392D292D5408003A031D9C2DF9
:102AB0008312071B9B2D01308316D4008312071B42
:102AC000702D803083164506F00080307002031DA3
:102AD0006B2DB73044020318702DC40A0319C50AC0
:102AE0008316CB01CC014C08073C031D792D4B0804
:102AF0006C3C031C9A2D45084C02031D812D440893
:102B00004B0203188B2D0430831208048316EA004D
:102B10000030EB00922DFB30831208058316EA008B
:102B20000030EB006A08831288008316CB0A031971
:102B3000CC0A732D582DDF2D8312071BDF2D831632
:102B4000D4018312071BB42D8030F000803083162F
:102B500045067002031DAE2D44082B3C0318B42D0E
:102B60000130C402031CC5038316CB01CC014C0801
:102B7000073C031DBD2D4B086C3C031CDE2D450896
:102B80004C02031DC52D44084B020318CF2D043001
:102B9000831208048316EC000030ED00D62DFB30C4
:102BA000831208058316EC000030ED006C088312D8
:102BB00088008316CB0A0319CC0AB72D9C2DA228B6
:022BC00008000B
:080FE800003400340034003431
:080FF000003400340034003429
:040FF800003400348D
:040FFC000034003489
:101932004D34613473347434653472342034203459
:0219420000346F
:10194400503475346D3470342034203420342034D1
:0219540000345D
:0619560063346D3400341F
:04195C00003400341F
:041960001534003406
:041964000034003417
:0419680015340034FE
:04196C00003400340F
:0619700063346D34003405
:041976000034003405
:04197A000F340034F2
:04197E0005340034F8
:0419820008340034F1
:0E198600483475346D346934643420340034D0
:0E199400543465346D34703420342034003403
:0419A2000A340034CF
:0419A60025340034B0
:1019AA00443445345334493447344E34453444344A
:0819BA0020344234793400347A
:1019C200FF34E6345B345D34C434FF347F347E3418
:1019D2008034EF34FF347D349034E13429347D3463
:1019E200EC348234F6347C348234AD342B347C349F
:1019F2000E343C34C3347B348734D13413347A34D8
:081A020041347834D334773409
:081A0A00003400340034003404
:041A12006434003404
:081A16000034003400340034F8
:021A1E00003492
:041A2000003400345A
:041A24000034003456
:021A2800003488
:081A2A000034003400340034E4
:021A320000347E
:041A3400283400341E
:041A38000134003441
:101A3C004C34653465346E342034423469346C343F
:061A4C0074346F34003415
:101A52004C344534563445344C3420342634203406
:0A1A6200503455344D345034003434
:02400E004A2F37
:00000001FF
